:020000040800F2
:100000000050002085320008E1310008E731000887
:10001000ED310008F3310008F9310008000000005C
:10002000000000000000000000000000FF31000898
:100030000B320008000000001732000823320008CD
:10004000CD320008CD320008CD320008CD32000894
:10005000CD320008CD3200082F320008CD32000822
:10006000CD320008CD320008CD3200083D32000804
:10007000CD320008CD320008CD320008CD32000864
:10008000CD320008CD320008CD320008CD32000854
:10009000CD320008CD320008CD320008CD32000844
:1000A000CD320008CD320008CD320008CD32000834
:1000B000CD320008CD320008CD320008CD32000824
:1000C00051320008CD32000865320008CD320008F8
:1000D000CD320008CD320008CD320008CD32000804
:1000E000CD320008CD320008CD32000800000000FB
:1000F0000000000000000000000000000000000000
:0C01000000000000000000005FF808F1A3
:1001100010B5054C237833B9044B13B10448AFF341
:1001200000800123237010BD880000200000000023
:10013000D06D000808B5034B1BB103490348AFF36A
:10014000008008BD000000008C000020D06D000879
:1001500081F0004102E000BF83F0004330B54FEA78
:1001600041044FEA430594EA050F08BF90EA020FE5
:100170001FBF54EA000C55EA020C7FEA645C7FEA78
:10018000655C00F0E2804FEA5454D4EB5555B8BF9B
:100190006D420CDD2C4480EA020281EA030382EA0C
:1001A000000083EA010180EA020281EA0303362D9E
:1001B00088BF30BD11F0004F4FEA01314FF4801C71
:1001C0004CEA113102D0404261EB410113F0004F83
:1001D0004FEA03334CEA133302D0524263EB43033A
:1001E00094EA050F00F0A780A4F10104D5F1200ED8
:1001F0000DDB02FA0EFC22FA05F2801841F1000133
:1002000003FA0EF2801843FA05F359410EE0A5F106
:1002100020050EF1200E012A03FA0EFC28BF4CF037
:10022000020C43FA05F3C01851EBE37101F00045ED
:1002300007D54FF0000EDCF1000C7EEB00006EEBFA
:100240000101B1F5801F1BD3B1F5001F0CD3490884
:100250005FEA30004FEA3C0C04F101044FEA4452DB
:1002600012F5800F80F09A80BCF1004F08BF5FEA62
:10027000500C50F1000041EB045141EA050130BD42
:100280005FEA4C0C404141EB0101013C28BFB1F554
:10029000801FE9D291F0000F04BF01460020B1FA9F
:1002A00081F308BF2033A3F10B03B3F120020CDA72
:1002B0000C3208DD02F1140CC2F10C0201FA0CF050
:1002C00021FA02F10CE002F11402D8BFC2F1200CB5
:1002D00001FA02F120FA0CFCDCBF41EA0C0190406B
:1002E000E41AA2BF01EB0451294330BD6FEA0404B4
:1002F0001F3C1CDA0C340EDC04F11404C4F120029F
:1003000020FA04F001FA02F340EA030021FA04F3B0
:1003100045EA030130BDC4F10C04C4F1200220FA07
:1003200002F001FA04F340EA0300294630BD21FA45
:1003300004F0294630BD94F0000F83F4801306BF0B
:1003400081F480110134013D4EE77FEA645C18BFFF
:100350007FEA655C29D094EA050F08BF90EA020F96
:1003600005D054EA000C04BF1946104630BD91EA8E
:10037000030F1EBF0021002030BD5FEA545C05D191
:100380004000494128BF41F0004130BD14F58004D0
:100390003CBF01F5801130BD01F0004545F0FE4144
:1003A00041F470014FF0000030BD7FEA645C1ABF79
:1003B000194610467FEA655C1CBF0B46024650EAB0
:1003C000013406BF52EA033591EA030F41F40021DC
:1003D00030BD00BF90F0000F04BF0021704730B562
:1003E0004FF4806404F132044FF000054FF0000137
:1003F00050E700BF90F0000F04BF0021704730B5F8
:100400004FF4806404F1320410F0004548BF4042CC
:100410004FF000013EE700BF42004FEAE2014FEA21
:1004200031014FEA02701FBF12F07F4393F07F4FFC
:1004300081F06051704732F07F4208BF704793F0FF
:100440007F4F04BF41F40021704730B54FF4607412
:1004500001F0004521F000411CE700BF50EA010215
:1004600008BF704730B54FF000050AE050EA0102BE
:1004700008BF704730B511F0004502D5404261EB2E
:1004800041014FF4806404F132045FEA915C3FF46F
:10049000D8AE4FF003025FEADC0C18BF03325FEA0C
:1004A000DC0C18BF033202EBDC02C2F1200300FABD
:1004B00003FC20FA02F001FA03FE40EA0E0021FAE2
:1004C00002F11444BDE600BF70B54FF0FF0C4CF4D0
:1004D000E06C1CEA11541DBF1CEA135594EA0C0F82
:1004E00095EA0C0F00F0DEF82C4481EA030621EABD
:1004F0004C5123EA4C5350EA013518BF52EA0335F8
:1005000041F4801143F4801338D0A0FB02CE4FF0A9
:100510000005E1FB02E506F00042E0FB03E54FF0D9
:100520000006E1FB03569CF0000F18BF4EF0010ED1
:10053000A4F1FF04B6F5007F64F5407404D25FEACD
:100540004E0E6D4146EB060642EAC62141EA555180
:100550004FEAC52040EA5E504FEACE2EB4F1FD0CC2
:1005600088BFBCF5E06F1ED8BEF1004F08BF5FEA40
:10057000500E50F1000041EB045170BD06F00046F2
:1005800046EA010140EA020081EA0301B4EB5C049F
:10059000C2BFD4EB0C0541EA045170BD41F4801197
:1005A0004FF0000E013C00F3AB8014F1360FDEBFBC
:1005B000002001F0004170BDC4F10004203C35DA98
:1005C0000C341BDC04F11404C4F1200500FA05F31B
:1005D00020FA04F001FA05F240EA020001F00042BC
:1005E00021F0004110EBD37021FA04F642EB060132
:1005F0005EEA430E08BF20EAD37070BDC4F10C045C
:10060000C4F1200500FA04F320FA05F001FA04F21F
:1006100040EA020001F0004110EBD37041F100010B
:100620005EEA430E08BF20EAD37070BDC4F1200516
:1006300000FA05F24EEA020E20FA04F301FA05F27E
:1006400043EA020321FA04F001F0004121FA04F226
:1006500020EA020000EBD3705EEA430E08BF20EAF6
:10066000D37070BD94F0000F0FD101F00046400030
:1006700041EB010111F4801F08BF013CF7D041EAB2
:10068000060195F0000F18BF704703F000465200B6
:1006900043EB030313F4801F08BF013DF7D043EA87
:1006A0000603704794EA0C0F0CEA135518BF95EA3D
:1006B0000C0F0CD050EA410618BF52EA4306D1D1C4
:1006C00081EA030101F000414FF0000070BD50EAE3
:1006D000410606BF1046194652EA430619D094EA6D
:1006E0000C0F02D150EA013613D195EA0C0F05D157
:1006F00052EA03361CBF104619460AD181EA0301AB
:1007000001F0004141F0FE4141F470014FF0000062
:1007100070BD41F0FE4141F4780170BD70B54FF0FD
:10072000FF0C4CF4E06C1CEA11541DBF1CEA13557D
:1007300094EA0C0F95EA0C0F00F0A7F8A4EB05045F
:1007400081EA030E52EA03354FEA013100F0888056
:100750004FEA03334FF0805545EA131343EA12631F
:100760004FEA022245EA111545EA10654FEA0026D4
:100770000EF000419D4208BF964244F1FD0404F58D
:10078000407402D25B084FEA3202B61A65EB0305E9
:100790005B084FEA32024FF480104FF4002CB6EBA6
:1007A000020E75EB030E22BFB61A754640EA0C0026
:1007B0005B084FEA3202B6EB020E75EB030E22BF66
:1007C000B61A754640EA5C005B084FEA3202B6EBA7
:1007D000020E75EB030E22BFB61A754640EA9C0066
:1007E0005B084FEA3202B6EB020E75EB030E22BF36
:1007F000B61A754640EADC0055EA060E18D04FEAF4
:10080000051545EA16754FEA06164FEAC30343EA93
:1008100052734FEAC2025FEA1C1CC0D111F4801F60
:100820000BD141EA00014FF000004FF0004CB6E759
:1008300011F4801F04BF01430020B4F1FD0C88BFF8
:10084000BCF5E06F3FF6AFAEB5EB030C04BFB6EB03
:10085000020C5FEA500C50F1000041EB045170BDF6
:100860000EF0004E4EEA113114EB5C04C2BFD4EB23
:100870000C0541EA045170BD41F480114FF0000EA7
:10088000013C90E645EA060E8DE60CEA135594EA23
:100890000C0F08BF95EA0C0F3FF43BAF94EA0C0F26
:1008A0000AD150EA01347FF434AF95EA0C0F7FF49B
:1008B00025AF104619462CE795EA0C0F06D152EAEF
:1008C00003353FF4FDAE1046194622E750EA4106D3
:1008D00018BF52EA43067FF4C5AE50EA41047FF4E4
:1008E0000DAF52EA43057FF4EBAE12E74FF0FF3C49
:1008F00006E000BF4FF0010C02E000BF4FF0010C1A
:100900004DF804CD4FEA410C7FEA6C5C4FEA430C92
:1009100018BF7FEA6C5C1BD001B050EA410C0CBFE1
:1009200052EA430C91EA030F02BF90EA020F002043
:10093000704710F1000F91EA030F58BF994208BFAA
:1009400090422CBFD8176FEAE37040F00100704767
:100950004FEA410C7FEA6C5C02D150EA013C07D1BE
:100960004FEA430C7FEA6C5CD6D152EA033CD3D009
:100970005DF8040B704700BF8446104662468C4603
:100980001946634600E000BF01B5FFF7B7FF002836
:1009900048BF10F1000F01BD4DF808EDFFF7F4FF5F
:1009A0000CBF012000205DF808FB00BF4DF808EDEA
:1009B000FFF7EAFF34BF012000205DF808FB00BF0D
:1009C0004DF808EDFFF7E0FF94BF012000205DF82F
:1009D00008FB00BF4DF808EDFFF7CEFF94BF0120E4
:1009E00000205DF808FB00BF4DF808EDFFF7C4FFDD
:1009F00034BF012000205DF808FB00BF4FEA410C26
:100A00007FEA6C5C02D150EA013C0AD14FEA430C08
:100A10007FEA6C5C02D152EA033C02D14FF0000045
:100A200070474FF0010070474FEA4102B2F1E043D6
:100A300024BFB3F5001CDCF1FE5C0DD901F0004CC5
:100A40004FEAC0024CEA5070B2F1004F40EB830015
:100A500008BF20F00100704711F0804F21D113F141
:100A60003872BCBF01F00040704741F480114FEA7A
:100A70005252C2F11802C2F1200C10FA0CF320FA03
:100A800002F018BF40F001004FEAC1234FEAD32320
:100A900003FA0CFC40EA0C0023FA02F34FEA43038A
:100AA000CCE77FEA625307D150EA01331EBF4FF013
:100AB000FE4040F44000704701F0004040F0FE402E
:100AC00040F40000704700BF80F0004002E000BF2B
:100AD00081F0004142001FBF5FEA410392EA030F29
:100AE0007FEA226C7FEA236C6AD04FEA1262D2EB73
:100AF0001363C1BFD218414048404140B8BF5B4278
:100B0000192B88BF704710F0004F40F4000020F010
:100B10007F4018BF404211F0004F41F4000121F026
:100B20007F4118BF494292EA030F3FD0A2F1010270
:100B300041FA03FC10EB0C00C3F1200301FA03F1AE
:100B400000F0004302D5494260EB4000B0F5000FD1
:100B500013D3B0F1807F06D340084FEA310102F190
:100B60000102FE2A51D2B1F1004F40EBC25008BF42
:100B700020F0010040EA03007047490040EB00000C
:100B8000013A28BFB0F5000FEDD2B0FA80FCACF10D
:100B9000080CB2EB0C0200FA0CF0AABF00EBC2503A
:100BA00052421843BCBFD0401843704792F0000F28
:100BB00081F4000106BF80F400000132013BB5E77B
:100BC0004FEA41037FEA226C18BF7FEA236C21D0F1
:100BD00092EA030F04D092F0000F08BF0846704756
:100BE00090EA010F1CBF0020704712F07F4F04D124
:100BF000400028BF40F00040704712F100723CBF37
:100C000000F50000704700F0004343F0FE4040F460
:100C1000000070477FEA226216BF08467FEA23631E
:100C20000146420206BF5FEA412390EA010F40F409
:100C3000800070474FF0000304E000BF10F0004355
:100C400048BF40425FEA000C08BF704743F096433C
:100C500001464FF000001CE050EA010208BF704757
:100C60004FF000030AE000BF50EA010208BF7047DE
:100C700011F0004302D5404261EB41015FEA010CF3
:100C800002BF84460146002043F0B64308BFA3F1EB
:100C90008053A3F50003BCFA8CF2083AA3EBC253CD
:100CA00010DB01FA02FC634400FA02FCC2F12002EC
:100CB000BCF1004F20FA02F243EB020008BF20F023
:100CC0000100704702F1200201FA02FCC2F1200289
:100CD00050EA4C0021FA02F243EB020008BF20EA7E
:100CE000DC7070474FF0FF0C1CEAD0521EBF1CEAAC
:100CF000D15392EA0C0F93EA0C0F6FD01A4480EA9A
:100D0000010C400218BF5FEA41211ED04FF0006382
:100D100043EA501043EA5111A0FB01310CF00040AE
:100D2000B1F5000F3EBF490041EAD3715B0040EAD4
:100D3000010062F17F02FD2A1DD8B3F1004F40EBA4
:100D4000C25008BF20F00100704790F0000F0CF077
:100D5000004C08BF49024CEA502040EA51207F3A3B
:100D6000C2BFD2F1FF0340EAC250704740F4000016
:100D70004FF00003013A5DDC12F1190FDCBF00F007
:100D800000407047C2F10002410021FA02F1C2F1B5
:100D9000200200FA02FC5FEA310040F1000053EA51
:100DA0004C0308BF20EADC70704792F0000F00F09F
:100DB000004C02BF400010F4000F013AF9D040EAA5
:100DC0000C0093F0000F01F0004C02BF490011F439
:100DD000000F013BF9D041EA0C018FE70CEAD15337
:100DE00092EA0C0F18BF93EA0C0F0AD030F0004CB7
:100DF00018BF31F0004CD8D180EA010000F000406B
:100E0000704790F0000F17BF90F0004F084691F028
:100E1000000F91F0004F14D092EA0C0F01D1420262
:100E20000FD193EA0C0F03D14B0218BF084608D12B
:100E300080EA010000F0004040F0FE4040F4000075
:100E4000704740F0FE4040F4400070474FF0FF0C08
:100E50001CEAD0521EBF1CEAD15392EA0C0F93EA4F
:100E60000C0F69D0A2EB030280EA010C49024FEAA1
:100E7000402037D04FF0805343EA111143EA10135A
:100E80000CF000408B4238BF5B0042F17D024FF412
:100E9000000C8B4224BF5B1A40EA0C00B3EB510FED
:100EA00024BFA3EB510340EA5C00B3EB910F24BFD6
:100EB000A3EB910340EA9C00B3EBD10F24BFA3EB5B
:100EC000D10340EADC001B0118BF5FEA1C1CE0D123
:100ED000FD2A3FF650AF8B4240EBC25008BF20F0D6
:100EE000010070470CF0004C4CEA50207F32C2BF2A
:100EF000D2F1FF0340EAC250704740F400004FF0C7
:100F00000003013A37E792F0000F00F0004C02BFF7
:100F1000400010F4000F013AF9D040EA0C0093F0C1
:100F2000000F01F0004C02BF490011F4000F013B1B
:100F3000F9D041EA0C0195E70CEAD15392EA0C0F83
:100F400008D142027FF47DAF93EA0C0F7FF470AFBB
:100F5000084676E793EA0C0F04D14B023FF44CAFFE
:100F600008466EE730F0004C18BF31F0004CCAD193
:100F700030F000427FF45CAF31F000437FF43CAFCF
:100F80005FE700BF4FF0FF3C06E000BF4FF0010CF1
:100F900002E000BF4FF0010C4DF804CD4FEA4002D3
:100FA0004FEA41037FEA226C18BF7FEA236C11D01D
:100FB00001B052EA530C18BF90EA010F58BFB2EBD0
:100FC000030088BFC81738BF6FEAE17018BF40F050
:100FD000010070477FEA226C02D15FEA402C05D104
:100FE0007FEA236CE4D15FEA412CE1D05DF8040B89
:100FF000704700BF844608466146FFE70FB5FFF71C
:10100000C9FF002848BF10F1000F0FBD4DF808EDD3
:10101000FFF7F4FF0CBF012000205DF808FB00BFC4
:101020004DF808EDFFF7EAFF34BF012000205DF81E
:1010300008FB00BF4DF808EDFFF7E0FF94BF01206B
:1010400000205DF808FB00BF4DF808EDFFF7D2FF68
:1010500094BF012000205DF808FB00BF4DF808EDAB
:10106000FFF7C8FF34BF012000205DF808FB00BF78
:1010700042000ED2B2F1FE4F0BD34FF09E03B3EB02
:10108000126209D44FEA002343F0004323FA02F02E
:1010900070474FF00000704712F1610F01D142021A
:1010A00002D14FF0FF3070474FF00000704700BF93
:1010B00080B500AF7D4B1B78002B3CD110217C48C4
:1010C00003F04EFA03461A467A4B1A70794B1A7897
:1010D000794B1B789A422ED0764B1A78764B1A7041
:1010E000744B1B78002B26D1744B4FF4FA721A8084
:1010F0006E4B0A221A70724B1B78002B03D1704B77
:1011000004221A7017E06E4B1B78082B05D96C4B24
:1011100000221A70694B0A221A80694B1B78002B37
:1011200009D0674B1B780F2B05D8654B1B781B012B
:10113000DAB2634B1A705D4B5B78002B39D12021FA
:101140005B4803F00DFA03461A465A4B5A70594B46
:101150005A78594B5B789A422BD0564B5A78564B5B
:101160005A70544B5B78002B23D1544B4FF4FA72D6
:101170001A804E4B0A225A70514B1B78002B03D118
:101180004F4B04221A7015E04D4B1B78082B05D0ED
:10119000802B07D14A4B10221A700BE0484B0122DA
:1011A0001A7007E0464B1B785B00DAB2444B1A70AA
:1011B00000E000BF3D4B9B78002B3AD140213C48DA
:1011C00003F0CEF903461A463A4B9A70394B9A7897
:1011D000394B9B789A422CD0364B9A78364B9A7082
:1011E000344B9B78002B24D1344B4FF4FA721A8085
:1011F0002E4B0A229A70324B1B78002B03D1304BB6
:1012000004221A7016E02E4B1B78012B02D0102BF3
:1012100004D007E02A4B08221A700BE0284B8022EA
:101220001A7007E0264B1B785B08DAB2244B1A7061
:1012300000E000BF1D4BDB78002B34D180211C481F
:1012400003F08EF903461A461A4BDA70194BDA7816
:10125000194BDB789A4226D0164BDA78164BDA70A7
:10126000144BDB78002B1ED1144B1B88002B03D1B1
:10127000144B1B78002B05D0124B1B780133DAB2CC
:10128000104B1A700D4B4FF4FA721A80074B0A225A
:10129000DA700C4B1B78012B05D90A4B00221A700F
:1012A000064B0A221A8000BF80BD00BF7C050020CB
:1012B00000080140D004002008060020B0000020F3
:1012C000B2000020B300002080B584B000AF786089
:1012D00029497868FFF706FD03467B607868FFF7C9
:1012E000C7FE0346BB81BB890A222449184605F084
:1012F0002FFBBB89092B0CD8204B1A781F4BDA70B7
:101300001E4B30229A701D4B30225A701B4B2022EC
:101310001A70BB89632B10D8BB89092B0DD9174BC9
:101320005A78164BDA70154B1A78144B9A70134B87
:1013300030225A70114B20221A70BB89B3F57A7F84
:1013400015D2BB89632B12D90323FB7309E0FB7B06
:101350005A1EFB7B0949895C084AD154FB7B013B3F
:10136000FB73FB7B002BF2D1044B20221A70034B42
:1013700018461037BD4680BD0000C842C40000209A
:1013800080B584B000AF0346FB804FF00003FB60E4
:10139000FB881846FFF752FC02460D4B1B681946A6
:1013A0001046FFF79FFC03460A491846FFF74EFD1B
:1013B00003461A46084B1B6819461046FFF78AFB7E
:1013C0000346FB60FB6818461037BD4680BD00BF72
:1013D0001000002000F07F45BC000020000000004D
:1013E00080B582B000AF78602B4B1B6879681846D7
:1013F000FFF72CFD03464FF07E511846FFF768FBC0
:1014000003467B607868FFF707F802460B461046F4
:10141000194605F0E9FA1AA3D3E90023FFF77EF98C
:1014200002460B461046194617A3D3E90023FEF7E0
:1014300095FE02460B464FF000001849FFF76EF983
:1014400002460B4610461946FFF7EEFA03467B604C
:101450007868FEF7E1FF0EA3D3E90023FEF77CFED8
:1014600002460B4610461946FFF7DEFA03467B603C
:101470007B6818460837BD4680BD00BFAFF30080CB
:10148000000000000068AA40346BEE84A2716B3F3C
:101490006666666666127140100000200000F03F2C
:1014A00090B585B002AF03460A46FB711346BB7187
:1014B000FB799BB2053398B2BB799BB2053399B2E5
:1014C000FB799BB205339AB2BB799BB20B339BB2CB
:1014D0000124009401F08FFBFB799BB2063398B294
:1014E000BB799BB2033399B2FB799BB206339AB2B4
:1014F000BB799BB20D339BB20124009401F07BFBBE
:10150000FB799BB2073398B2BB799BB2033399B294
:10151000FB799BB207339AB2BB799BB205339BB27E
:101520000124009401F067FBFB799BB2073398B26A
:10153000BB799BB20B3399B2FB799BB207339AB25A
:10154000BB799BB20D339BB20124009401F053FB95
:10155000FB799BB2083398B2BB799BB20E3399B238
:10156000FB799BB20A339AB2BB799BB20E339BB222
:101570000124009401F03FFBFB799BB2083398B241
:10158000BB799BB20D3399B2FB799BB20A339AB205
:10159000BB799BB20D339BB20124009401F02BFB6D
:1015A000FB799BB2083398B2BB799BB2023399B2F4
:1015B000FB799BB20A339AB2BB799BB202339BB2DE
:1015C0000124009401F017FBFB799BB2083398B219
:1015D000BB799BB2033399B2FB799BB20A339AB2BF
:1015E000BB799BB203339BB20124009401F003FB4F
:1015F000FB799BB20B3398B2BB799BB2033399B2A0
:10160000FB799BB20B339AB2BB799BB204339BB28A
:101610000124009401F0EFFAFB799BB20B3398B2EE
:10162000BB799BB20D3399B2FB799BB20B339AB263
:10163000BB799BB20C339BB20124009401F0DBFA1E
:10164000FB799BB20C3398B2BB799BB2043399B24D
:10165000FB799BB20C339AB2BB799BB206339BB237
:101660000124009401F0C7FAFB799BB20C3398B2C5
:10167000BB799BB20C3399B2FB799BB20C339AB213
:10168000BB799BB20A339BB20124009401F0B3FAF8
:1016900000BF0C37BD4690BD90B58BB002AFBA60AD
:1016A0007B600346FB730B46BB7301F09FFBFB7B28
:1016B000DB43FB737868FFF707FEB86103211A204C
:1016C00001F0DEF9BB691878FB7BDB10DBB203F0BD
:1016D0000103DBB21A46534901F0E8F90321252042
:1016E00001F0CEF9BB6901331878FB7B9B10DBB2AC
:1016F00003F00103DBB21A464A4901F0D7F903218E
:10170000302001F0BDF9012246492C2001F0CEF92C
:1017100003213B2001F0B4F9BB6902331878FB7B4D
:101720005B10DBB203F00103DBB21A463D4901F066
:10173000BDF90321462001F0A3F9BB6903331878F2
:10174000FB7B03F00103DBB21A46364901F0AEF928
:1017500003216B2001F094F901223249562001F057
:10176000A5F9B868FFF7B0FD786119211A2001F0DA
:1017700087F97B691878FB7BDB09DBB21A462949BC
:1017800001F094F91921252001F07AF97B690133E0
:101790001878FB7B9B11DBB203F00103DBB21A4626
:1017A000204901F083F91921302001F069F9012263
:1017B0001C492C2001F07AF919213B2001F060F935
:1017C0007B6902331878FB7B5B11DBB203F001030A
:1017D000DBB21A46134901F069F91921462001F0DC
:1017E0004FF97B6903331878FB7B1B11DBB203F0E5
:1017F0000103DBB21A460B4901F058F919216B209D
:1018000001F03EF901220749412001F04FF9002380
:10181000FB770023BB77BB7B012B05D0022B00F0AD
:10182000C580D6E0000000205123FB772D23BB7735
:10183000BB7F19465C20FFF733FEFB7F9BB205336D
:1018400098B2BB7F9BB2023399B2FB7F9BB2053348
:101850009AB2BB7F9BB206339BB20124009401F085
:10186000CAF9FB7F9BB20D3398B2BB7F9BB20233A8
:1018700099B2FB7F9BB20D339AB2BB7F9BB206330A
:101880009BB20124009401F0B6F9FB7F9BB20633B2
:1018900098B2BB7F9BB2023399B2FB7F9BB20633F7
:1018A0009AB2BB7F9BB20B339BB20124009401F030
:1018B000A2F9FB7F9BB20C3398B2BB7F9BB2023381
:1018C00099B2FB7F9BB20C339AB2BB7F9BB20B33B6
:1018D0009BB20124009401F08EF9FB7F9BB2073389
:1018E00098B2BB7F9BB2063399B2FB7F9BB20733A2
:1018F0009AB2BB7F9BB20D339BB20124009401F0DE
:101900007AF9FB7F9BB20B3398B2BB7F9BB2063355
:1019100099B2FB7F9BB20B339AB2BB7F9BB20D3364
:101920009BB20124009401F066F9FB7F9BB208335F
:1019300098B2BB7F9BB20B3399B2FB7F9BB208334B
:101940009AB2BB7F9BB20E339BB20124009401F08C
:1019500052F9FB7F9BB20A3398B2BB7F9BB20B3329
:1019600099B2FB7F9BB20A339AB2BB7F9BB20E3314
:101970009BB20124009401F03EF9FB7F9BB2093336
:1019800098B2BB7F9BB20D339BB20122194601F086
:1019900019F8FB7F9BB2093398B2BB7F9BB20E3321
:1019A0009BB20122194601F00DF812E01423FB77D7
:1019B0002D23BB77BA7FFB7F11461846FFF770FDDA
:1019C000FB7F0A33DBB2BA7F11461846FFF768FD8A
:1019D00000BFBB7B002B77D0FB7F9BB2023398B25A
:1019E000BB7F99B2FB7F9BB219339AB2BB7F9BB28C
:1019F0000124009401F0FFF8FB7F98B2BB7F9BB2FB
:101A0000023399B2FB7F9AB2BB7F9BB20F339BB27A
:101A10000124009401F0EFF8FB7F9BB2023398B2EF
:101A2000BB7F9BB2113399B2FB7F9BB219339AB241
:101A3000BB7F9BB211339BB20124009401F0DBF811
:101A4000FB7F9BB21B3398B2BB7F9BB2023399B230
:101A5000FB7F9BB21B339AB2BB7F9BB20F339BB20F
:101A60000124009401F0C7F8FB7F9BB2013398B2C8
:101A7000BB7F9BB201339BB20122194600F0A2FF4B
:101A8000FB7F9BB2013398B2BB7F9BB210339BB2FA
:101A90000122194600F096FFFB7F9BB21A3398B2E1
:101AA000BB7F9BB201339BB20122194600F08AFF33
:101AB000FB7F9BB21A3398B2BB7F9BB210339BB2B1
:101AC0000122194600F07EFF00F036FF00BF2437E8
:101AD000BD4690BD80B584B000AF0023FB81434B71
:101AE0001B681846FFF7C4FA0346BB81BB89391D42
:101AF0000A22184604F02CFF3D4B1B8818463B4633
:101B00000A22194604F024FF3A4B1B683A4A12682D
:101B100011461846FFF7E6F803461846FFF7A8FAFD
:101B20000346FB81FB8907F108010A22184604F0ED
:101B30000FFF01F05BF903210A2000F0A1FF012251
:101B40002E492F4801F032F80321412000F098FF80
:101B500007F1080301222949184601F027F803215B
:101B60006B2000F08DFF01222449572000F09EFFDA
:101B700019210A2000F084FF01222049214801F0A8
:101B800015F81921412000F07BFF3B1D01221B4964
:101B9000184601F00BF819216B2000F071FF0122AB
:101BA0001649432000F082FF2B210A2000F068FF35
:101BB00001221249144800F0F9FF2B21412000F0C6
:101BC0005FFF3B4601220D49184600F0EFFF2B2135
:101BD0006B2000F055FF01220849252000F066FF28
:101BE00000F0AAFE00BF1037BD4680BDAC0000204B
:101BF000C0000020A4000020A80000200000002059
:101C0000E86D0008F06D0008F86D000880B582B03E
:101C100000AF786025497868FFF720FA0346002B6B
:101C200002D0234B01221A7022497868FFF7F8F995
:101C30000346002B02D01E4B00221A701C4B1B784F
:101C4000012B1DD11C497868FEF742FF0346194657
:101C50001846FEF73FFF034618491846FEF73AFFBD
:101C600003461846FFF704FA03469AB2144B1A804B
:101C7000134B1B88642B06D9114B64221A8002E097
:101C80000F4B00221A800E4B1B881A4613461B026C
:101C90009B1A0C4A82FB03125211DB17D21A4FF027
:101CA00080435A6300BF0837BD4680BD0000F04145
:101CB000C20000200000E0410000C841000048428E
:101CC000C00000201F85EB5180B584B002AF0346F1
:101CD000FB80FB881B099BB2DAB2094B5A70FB8868
:101CE0001B01DAB2064B9A700A2300930323044ABD
:101CF000C221044802F0C0FD00BF0837BD4680BDC8
:101D00000C0000202805002080B582B000AF78606C
:101D100019497868FFF784F90346002B04D00122A3
:101D20000421164802F033FC154B9B689BB2184601
:101D3000FFF726FB034619461846FEF7CBFE03467F
:101D400010491846FEF7CEFF034679681846FEF79D
:101D5000C1FE03460C491846FFF778F803461846BB
:101D6000FFF786F903469BB21846FFF7ADFF00BFA9
:101D70000837BD4680BD00BF00002040000C014078
:101D8000B405002000F07F450000A04000000000E6
:101D9000B0B584B000AF0346FB800221B64802F024
:101DA000DFFB0346BB73FB88012B40F05981B34B2B
:101DB0001B79002B40F054810123FB73B04B4FF48F
:101DC000FA721A80BB7B012B01D1FF23FB73AD4B51
:101DD0001B78802B00F00F81802B00F32181202BBA
:101DE0004ADC002B40F31C81013B1F2B00F21881C1
:101DF00001A252F823F000BF811E0008C31E000894
:101E000021200008051F00082120000821200008CB
:101E100021200008271F0008212000082120000899
:101E2000212000082120000821200008212000088E
:101E300021200008511F000821200008212000084F
:101E4000212000082120000821200008212000086E
:101E5000212000082120000821200008212000085E
:101E6000212000082120000821200008212000084E
:101E700021200008931F0008402B00F0AB80CFE02A
:101E8000814B1B681846FEF7C7FA04460D4697F9C2
:101E90000F301846FEF7AEFA73A3D3E90023FEF71E
:101EA00013FB02460B4620462946FEF757F9024629
:101EB0000B4610461946FEF7B7FD0346724A1360FB
:101EC000AFE0714B1B681846FEF7A6FA04460D46B4
:101ED00097F90F301846FEF78DFA65A3D3E9002372
:101EE000FEF7F2FA02460B4620462946FEF736F97F
:101EF00002460B4610461946FEF796FD0346624A17
:101F000013608EE097F90F301846FEF797FE0246F1
:101F10005D4B1B6819461046FEF7DCFD03461A466A
:101F2000594B1A607DE097F90F2013469B0013442C
:101F30005B001846FEF782FE0246534B1B681946AB
:101F40001046FEF7C7FD03461A464F4B1A6068E07D
:101F50004E4B1B681846FEF75FFA04460D4697F98C
:101F60000F301846FEF746FA3FA3D3E90023FEF7E9
:101F7000ABFA02460B4620462946FEF7EFF802462A
:101F80000B4610461946FEF74FFD03463F4A1360C5
:101F900047E03E4B1B681846FEF73EFA04460D46E6
:101FA00097F90F301846FEF725FA31A3D3E900233D
:101FB000FEF78AFA02460B4620462946FEF7CEF87F
:101FC00002460B4610461946FEF72EFD03462F4AE1
:101FD000136026E097F90F301846FEF72FFE0246F1
:101FE0002A4B1B6819461046FEF774FD03461A4635
:101FF000264B1A6015E097F90F2013469B001344F7
:102000005B001846FEF71AFE0246204B1B68194675
:102010001046FEF75FFD03461A461C4B1A6000E0AF
:1020200000BF1A4B1B684FF000011846FEF7F8FF7F
:102030000346002B03D0154B4FF000021A60124BE1
:102040001B684FF000011846FEF7EAFF0346002B1D
:1020500003D00D4B4FF000021A60084B0A221A7190
:1020600000BF1037BD46B0BD7B14AE47E17A843F58
:102070009A9999999999B93F000C01407C050020E3
:10208000B0000020B2000020B8000020B400002002
:10209000B0B584B000AF01F01BF900F05BF900F0BF
:1020A000F1FA00F01DFA00F049FA00F0CDFA00F064
:1020B000ADF900F071FA00F07BFB042298499948D1
:1020C00001F064FA0021984804F034F8974B18782E
:1020D0004FF000034FF000020021FFF7DDFA4FF050
:1020E0000003BB604FF000037B600023FB73FEF72F
:1020F000DFFF8F4B1B88002B49D08D4B1B88B3F51E
:10210000FA7F14D18B4B1B78012B06D1FFF7E2FC31
:10211000874B40F2EE221A800AE0874B1878874BF3
:102120001A68874B1B680021FFF7B6FA00E000BF72
:102130007F4B1B88002B05D07D4B1B88013B9AB23F
:102140007B4B1A800023BB730EE0BB7B7D4AD35CC4
:10215000002B06D0BB7B7B4AD25C013AD1B2794AD4
:10216000D154BB7B0133BB73BB7B042BEDD9704BCC
:102170001B88002B07D16F4B00221A706F4B1B6816
:102180001846FFF7C1FD022001F004F9ADE06E4BE7
:102190001C68634B1B689BB21846FFF7F1F80346B7
:1021A00019461846FEF796FC034619462046FEF7E8
:1021B0008FFC0346BB60B868FEF72EF954A3D3E941
:1021C0000023FEF711FC0346002B0AD1B868FEF786
:1021D00023F951A3D3E90023FEF7E8FB0346002BC4
:1021E00012D04F4B1B689BB21846FFF7C9F8034645
:1021F00019461846FEF76EFC03461A46524B1A6003
:10220000FB7B43F00103FB73504B1C68444B5B6842
:102210009BB21846FFF7B4F8034619461846FEF776
:1022200059FC03461D463E4B9B689BB21846FFF780
:10223000A7F8034619461846FEF74CFC0346194614
:102240002846FEF745FC034619462046FEF740FCAB
:1022500003467B607868FEF7DFF82DA3D3E90023FF
:10226000FEF7C2FB0346002B0AD17868FEF7D4F8CC
:1022700029A3D3E90023FEF799FB0346002B29D0BD
:10228000274B5B689BB21846FFF77AF8034619465E
:102290001846FEF71FFC03461C46214B9B689BB269
:1022A0001846FFF76DF8034619461846FEF712FC6C
:1022B000034619462046FEF70BFC03461A46234BFD
:1022C0001A601E4B1B681846FFF71EFDFB7B43F090
:1022D0000103FB73FB7B002B07D01B4B1A68174BCA
:1022E0001B6801210020FFF7D7F90D4BDB689BB27B
:1022F0001846FFF745F803461846FFF771F80346FE
:10230000134A1360124B1B681846FFF77FFCE6E682
:102310007B14AE47E17A843F7B14AE47E17A84BFF9
:10232000B4050020840500200C06002008000020D1
:10233000B0000020B3000020B2000020B400002054
:10234000B80000207C050020A4000020A800002088
:10235000AC00002080B594B000AF07F1280328221C
:102360000021184604F0F6FA07F1140300221A605F
:102370005A609A60DA601A613B1D00221A605A6046
:102380009A60DA600123BB624FF48033FB62002362
:102390003B630123BB6302237B644FF48033BB6444
:1023A0004FF4E013FB6407F12803184603F0B6F975
:1023B0000346002B01D000F0F5F90F237B610223C7
:1023C000BB610023FB614FF480633B624FF4A06369
:1023D0007B6207F114030221184603F01FFC034639
:1023E000002B01D000F0DEF902237B604FF4404364
:1023F000FB603B1D184603F097FD0346002B01D000
:1024000000F0D0F900BF5037BD4680BD80B584B024
:1024100000AF3B1D00221A605A609A602E4B2F4A73
:102420001A602D4B4FF480729A602B4B01221A7365
:10243000294B00221A75284B4FF46022DA61264B93
:1024400000225A60244B04221A61234800F0C6FF80
:102450000346002B01D000F0A5F900237B60012387
:10246000BB600623FB603B1D19461B4801F088F941
:102470000346002B01D000F095F901237B60022375
:10248000BB603B1D1946144801F07AF90346002B46
:1024900001D000F087F902237B600323BB603B1D62
:1024A00019460D4801F06CF90346002B01D000F0ED
:1024B00079F903237B600423BB603B1D1946064862
:1024C00001F05EF90346002B01D000F06BF900BF6C
:1024D0001037BD4680BD00BF8405002000240140A8
:1024E00080B500AF124B134A1A60114B124A5A6062
:1024F0000F4B00229A600E4B0022DA600C4B4FF417
:1025000080421A610A4B00225A61094B00229A61EB
:10251000074B0022DA61064B00221A62044802F0DF
:1025200067F80346002B01D000F03CF900BF80BDE6
:10253000D404002000540040801A060080B500AF8B
:10254000124B134A1A60114B124A5A600F4B002269
:102550009A600E4B0022DA600C4B4FF480421A61F5
:102560000A4B00225A61094B00229A61074B002254
:10257000DA61064B00221A62044802F039F8034679
:10258000002B01D000F00EF900BF80BD280500200F
:1025900000580040A086010080B58AB000AF07F166
:1025A000200300221A605A603B1D00221A605A6004
:1025B0009A60DA601A615A619A61224B4FF0804248
:1025C0001A60204B00225A601E4B00229A601D4B5D
:1025D000FF22DA601B4B00221A611A4B00229A611B
:1025E000184803F057FD0346002B01D000F0DAF83D
:1025F00000233B6200237B6207F120031946114848
:1026000004F006F90346002B01D000F0CBF860235C
:102610007B600023BB600023FB6000237B613B1DCC
:1026200000221946074803F027FE0346002B01D07D
:1026300000F0B8F8034800F08DFD00BF2837BD4614
:1026400080BD00BF0C06002080B582B000AF0C4BEF
:102650005B690B4A43F001035361094B5B6903F06B
:1026600001037B607B68002200210B2001F059FBF5
:102670000B2001F072FB00BF0837BD4680BD00BFD4
:102680000010024080B588B000AF07F110030022AF
:102690001A605A609A60DA603E4B9B693D4A43F08B
:1026A000200393613B4B9B6903F02003FB60FB68B5
:1026B000384B9B69374A43F004039361354B9B6960
:1026C00003F00403BB60BB68324B9B69314A43F0A3
:1026D000080393612F4B9B6903F008037B607B68C1
:1026E00000224EF204012C4801F051FF00224FF469
:1026F00040712A4801F04BFFF0233B6100237B61CE
:102700000123BB6107F110031946244801F0A4FD21
:1027100001233B61224B7B610123BB6107F1100365
:1027200019461D4801F098FD02233B6100237B619F
:102730000123BB6107F110031946174801F08CFD16
:102740004EF204033B6101237B610023BB61022342
:10275000FB6107F1100319460F4801F07DFD4FF4AE
:1027600040733B6101237B610023BB610223FB615A
:1027700007F110031946094801F06EFD00220121FE
:10278000062001F0CEFA062001F0E7FA00BF20375C
:10279000BD4680BD00100240000C01400008014011
:1027A0000000211080B400AF72B600BFFEE7000049
:1027B00080B582B000AF00F021FB44F62063012217
:1027C00078215B4802F056F90346002B01D0002324
:1027D000A9E040F6C4137B6002E07B68013B7B60AC
:1027E0007B68002BF9D1AE220021782000F062FB3B
:1027F00020220021782000F05DFB102200217820AB
:1028000000F058FBB0220021782000F053FBC822D2
:102810000021782000F04EFB00220021782000F0FB
:1028200049FB10220021782000F044FB40220021C7
:10283000782000F03FFB81220021782000F03AFB55
:10284000FF220021782000F035FBA1220021782012
:1028500000F030FBA6220021782000F02BFBA822FC
:102860000021782000F026FB3F220021782000F094
:1028700021FBA4220021782000F01CFBD3220021A0
:10288000782000F017FB00220021782000F012FBD6
:10289000D5220021782000F00DFBF02200217820C5
:1028A00000F008FBD9220021782000F003FB22224F
:1028B0000021782000F0FEFADA220021782000F0D2
:1028C000F9FA12220021782000F0F4FADB2200212C
:1028D000782000F0EFFA20220021782000F0EAFAB8
:1028E0008D220021782000F0E5FA142200217820C2
:1028F00000F0E0FAAF220021782000F0DBFA2E226F
:102900000021782000F0D6FA002000F043F800F013
:1029100013F8084B00221A80064B00225A80054B00
:1029200001225A71012318460837BD4680BD00BFF9
:10293000D4040020C804002080B582B000AF00237A
:10294000FB711DE0FB79503BDBB21A460021782079
:1029500000F0B0FA00220021782000F0ABFA10223B
:102960000021782000F0A6FAFB79DB01084A1A441E
:1029700080234021782000F055FAFB790133FB7168
:10298000FB79072BDED900BF00BF0837BD4680BDED
:10299000C800002080B582B000AF0346FB71FB7910
:1029A000002B01D1002300E0FF234FF48062194681
:1029B000034803F0CFFF00BF0837BD4680BD00BF0E
:1029C000C800002080B483B000AF0346FB800B46F4
:1029D000BB801346FB70FB887F2B48D8BB883F2BFE
:1029E00045D8254B1B79002B06D0FB78002B0CBF5C
:1029F00001230023DBB2FB70FB78012B1AD1FA888C
:102A0000BB88DB0898B20346DB0113441B4AD35C46
:102A10005AB2BB8803F00703012101FA03F35BB24A
:102A2000134359B2FA880346DB011344C9B2134A6F
:102A3000D1541DE0FA88BB88DB0898B20346DB015D
:102A400013440E4AD35C5AB2BB8803F0070301213A
:102A500001FA03F35BB2DB435BB2134059B2FA886D
:102A60000346DB011344C9B2044AD15400E000BF5D
:102A70000C37BD4680BC7047C8040020C800002049
:102A800080B483B000AF03460A46FB801346BB8088
:102A9000054AFB881380044ABB88538000BF0C376B
:102AA000BD4680BC704700BFC804002080B586B01A
:102AB00000AF03463960FB711346BB713A4B1B886C
:102AC0001A463B681B7813447F2B07DC364B5B8828
:102AD0001A463B685B7813443F2B01DD00235EE020
:102AE00000237B614BE03B685A68FB79203B3968E7
:102AF000497801FB03F319467B690B445B001344DF
:102B00001B88FB6000233B6130E0FA683B6902FAF6
:102B100003F303F40043002B10D0234B1A883B69C6
:102B20009BB2134498B2204B5A887B699BB21344E2
:102B30009BB2BA791946FFF745FF14E01A4B1A8881
:102B40003B699BB2134498B2174B5A887B699BB27E
:102B5000134499B2BB79002B0CBF01230023DBB2D5
:102B60001A46FFF72FFF3B6901333B613B681B7837
:102B70001A463B699342C8D37B6901337B613B684A
:102B80005B781A467B699342ADD3074B1A883B6842
:102B90001B789BB213449AB2034B1A80FB791846F8
:102BA0001837BD4680BD00BFC804002080B584B082
:102BB00000AFF860B9601346FB7112E0FB681B7848
:102BC000FA79B9681846FFF771FF03461A46FB68A1
:102BD0001B789A4202D0FB681B7808E0FB6801333F
:102BE000FB60FB681B78002BE8D1FB681B7818465C
:102BF0001037BD4680BD90B587B000AF044608468B
:102C000011461A462346FB800346BB800B467B8059
:102C100013463B80FB887F2B01D97F23FB807B8879
:102C20007F2B01D97F237B80BB883F2B01D93F239A
:102C3000BB803B883F2B01D93F233B80FA887B88B0
:102C40009A4205D27A88FB88D31A9BB21BB204E061
:102C5000FA887B88D31A9BB21BB27B82BA883B88E6
:102C60009A4205D23A88BB88D31A9BB21BB204E0C1
:102C7000BA883B88D31A9BB21BB23B82FA887B8806
:102C80009A4201D2012301E04FF0FF33FB81BA8861
:102C90003B889A4201D2012301E04FF0FF33BB8110
:102CA000B7F91220B7F910309A4206DDB7F91230A1
:102CB000DA0F13445B101BB206E0B7F91030DA0FDD
:102CC00013445B105B421BB2FB82B7F91230002B3E
:102CD00029D13A88BB889A4205D23B883B81BB8880
:102CE0003B803B89BB807A88FB889A4205D27B88EF
:102CF0003B81FB887B803B89FB80BB88BB820CE0EF
:102D0000B98A97F82820FB881846FFF75BFEB7F9C9
:102D100014309BB201339BB2BB82B7F914203B88BD
:102D20009A42EDDD5FE0B7F91030002B29D13A88E7
:102D3000BB889A4205D23B883B81BB883B803B895C
:102D4000BB807A88FB889A4205D27B883B81FB88CE
:102D50007B803B89FB80FB88BB820CE0BB8A97F8B9
:102D60002820B9881846FFF72DFEB7F914309BB21A
:102D700001339BB2BB82B7F914207B889A42EDDD08
:102D800031E097F82820B988FB881846FFF71AFE2B
:102D9000FA887B889A4203D1BA883B889A4221D02C
:102DA000FB8A7B81B7F90A20B7F912305B429A425D
:102DB00008DDFA8A3B8AD31A9BB2FB82FA89FB8828
:102DC0001344FB80B7F90A20B7F910309A42D8DAD9
:102DD000FA8A7B8A13449BB2FB82BA89BB8813446C
:102DE000BB80CEE700BF1C37BD4690BD80B500AFAD
:102DF0000020FFF7CFFD00BF80BD000080B483B08E
:102E000000AF074B7B6002E07B68013B7B607B6827
:102E1000002BF9D100BF00BF0C37BD4680BC704706
:102E200090D0030090B5C7B002AF044608463946BB
:102E30000A601946FB1D22461A70BB1D02461A7015
:102E40003B1D0A461A8007F10C03BA1D12781A704E
:102E5000002387F80F3110E097F80F313A461268D7
:102E60001A4497F80F310133117807F10C02D1544D
:102E700097F80F31013387F80F3197F80F319BB274
:102E80003A1D12889A42E7D8FB1D1B7899B23B1D68
:102E90001B8801339BB207F10C020A200090044802
:102EA00001F0EAFC00BF07F58A77BD4690BD00BF80
:102EB000D404002080B586B002AF0346FB710B46F8
:102EC000BB7113467B71BB793B737B797B73FB7959
:102ED00099B207F10C020A2300930223034801F080
:102EE000CBFC00BF1037BD4680BD00BFD40400201E
:102EF00080B485B000AF154B9B69144A43F00103C1
:102F00009361124B9B6903F00103BB60BB680F4BDD
:102F1000DB690E4A43F08053D3610C4BDB6903F04D
:102F200080537B607B680A4B5B68FB60FB6823F027
:102F3000E063FB60FB6843F08063FB60044AFB686E
:102F4000536000BF1437BD4680BC7047001002407C
:102F50000000014080B588B000AF786007F1100331
:102F600000221A605A609A60DA607B681B68284AFF
:102F7000934249D1274B9B69264A43F400739361DE
:102F8000244B9B6903F40073FB60FB68214B9B6936
:102F9000204A43F0040393611E4B9B6903F0040332
:102FA000BB60BB680F233B6103237B6107F1100308
:102FB0001946194801F050F9184B194A1A60174B75
:102FC00000225A60154B00229A60144B8022DA606E
:102FD000124B4FF400721A61104B4FF400625A61A9
:102FE0000E4B20229A610D4B0022DA610B4800F053
:102FF000CFFE0346002B01D0FFF7D4FB7B68074AC6
:103000001A62064A7B68536200BF2037BD4680BD06
:10301000002401400010024000080140C4050020C7
:103020000800024080B58AB000AF786007F118034D
:1030300000221A605A609A60DA607B681B68334A23
:1030400093422CD1324B9B69314A43F00803936180
:103050002F4B9B6903F008037B617B69C023BB6135
:103060001223FB6103237B6207F1180319462948E9
:1030700001F0F2F8264BDB69254A43F40013D361D3
:10308000234BDB6903F400133B613B690022002101
:10309000202000F046FE202000F05FFE31E07B683B
:1030A0001B681D4A93422CD1194B9B69184A43F067
:1030B00008039361164B9B6903F00803FB60FB68F0
:1030C0004FF44063BB611223FB6103237B6207F172
:1030D000180319460F4801F0BFF80D4BDB690C4A85
:1030E00043F48003D3610A4BDB6903F48003BB60C4
:1030F000BB6800220021222000F013FE222000F0F5
:103100002CFE00BF2837BD4680BD00BF00540040E4
:1031100000100240000C01400058004080B485B00F
:1031200000AF78607B681B68B3F1804F0BD1084B10
:10313000DB69074A43F00103D361054BDB6903F008
:103140000103FB60FB6800BF1437BD4680BC7047BD
:103150000010024080B588B000AF786007F10C0322
:1031600000221A605A609A60DA607B681B68B3F1CB
:10317000804F2AD1174B9B69164A43F00403936191
:10318000144B9B6903F00403BB60BB684FF400431E
:10319000FB6002233B610223BB6107F10C0319466C
:1031A0000D4801F059F80D4B5B68FB61FB6923F496
:1031B0004073FB61FB6943F0E063FB61FB6943F42F
:1031C0008073FB61054AFB69536000BF2037BD4631
:1031D00080BD00BF00100240000801400000014017
:1031E00080B400AFFEE780B400AFFEE780B400AF6C
:1031F000FEE780B400AFFEE780B400AFFEE780B426
:1032000000AF00BFBD4680BC704780B400AF00BFB8
:10321000BD4680BC704780B400AF00BFBD4680BCD7
:10322000704780B500AF00F099F800BF80BD80B551
:1032300000AF012001F0C4F900BF80BD80B500AF30
:10324000024800F0D5FE00BF80BD00BFC4050020CD
:1032500080B500AF024801F03BFD00BF80BD00BF5C
:10326000D404002080B500AF024801F031FD00BF5A
:1032700080BD00BF2805002080B400AF00BFBD4660
:1032800080BC70470C480D490D4A002302E0D45819
:10329000C4500433C4188C42F9D30A4A0A4C0023A0
:1032A00001E013600432A242FBD3FFF7E5FF03F015
:1032B00013FBFEF7EDFE70470000002088000020A1
:1032C000B47B00088800002058060020FEE70000BC
:1032D00080B500AF084B1B68074A43F0100313602A
:1032E000032000F013FD0F2000F008F8FFF700FEA8
:1032F0000023184680BD00BF0020024080B582B088
:1033000000AF7860124B1A68124B1B7819464FF4C5
:103310007A73B3FBF1F3B2FBF3F3184600F02BFD25
:103320000346002B01D001230EE07B680F2B0AD847
:10333000002279684FF0FF3000F0F3FC064A7B680A
:103340001360002300E0012318460837BD4680BD06
:10335000140000201C0000201800002080B400AFE2
:10336000054B1B781A46054B1B681344034A136030
:1033700000BFBD4680BC70471C00002054060020E2
:1033800080B400AF024B1B681846BD4680BC704736
:103390005406002080B584B000AF7860FFF7F0FFDE
:1033A000B8607B68FB60FB68B3F1FF3F05D00A4B58
:1033B0001B781A46FB681344FB6000BFFFF7E0FF71
:1033C0000246BB68D31AFA689A42F7D800BF00BF1A
:1033D0001037BD4680BD00BF1C00002080B586B000
:1033E00000AF78600023FB7500233B610023BB60C6
:1033F0000023FB607B68002B01D10123BEE07B68CA
:103400009B68002B7B689B6A002B09D17B6800229C
:10341000DA627B68002283F824207868FFF79AFD3F
:10342000786800F0FFFA0346FB757B689B6A03F03F
:103430001003002B40F09980FB7D002B40F095801D
:103440007B689B6A23F4885323F0020343F0020253
:103450007B689A627B685A687B68DB691A437B6881
:103460001B7B5B001343BA681343BB607B689B689C
:10347000B3F5807F03D07B689B68012B02D14FF4AA
:10348000807300E000233A6913433B617B681B7D36
:10349000012B19D17B681B7B002B09D17B689B69B1
:1034A000013B5A033B69134343F400633B610BE068
:1034B0007B689B6A43F020027B689A627B68DB6AC8
:1034C00043F001027B68DA627B681B685B6823F467
:1034D00069417B681B683A690A435A607B681B68CC
:1034E0009A68284B13407A681268B9680B43936056
:1034F0007B689B68B3F5807F03D07B689B68012B5A
:1035000004D17B681B69013B1B05FB607B681B6862
:10351000DB6A23F470017B681B68FA680A43DA628D
:103520007B681B689A68184B1340BA689A420BD1A3
:103530007B680022DA627B689B6A23F0030343F016
:1035400001027B689A6218E07B689B6A23F0120391
:1035500043F010027B689A627B68DB6A43F00102E9
:103560007B68DA620123FB7507E07B689B6A43F0A6
:1035700010027B689A620123FB75FB7D18461837A1
:10358000BD4680BDFDF7E1FFFE0E1FFF80B586B092
:1035900000AFF860B9607A600023FB75FB681B68B8
:1035A000644A934204D0FB681B68634A934206D185
:1035B000604B5B6803F47023002B40F0B380FB6822
:1035C00093F82430012B01D10223AEE0FB680122E5
:1035D00083F82420F86800F0CBF90346FB75FB7DE7
:1035E000002B40F09A80FB689B6A23F4706323F001
:1035F000010343F48072FB689A62FB681B684E4AC1
:10360000934205D14B4B5B6803F47023002B15D11B
:10361000FB689B6A23F48012FB689A62FB681B6854
:103620005B6803F48063002B26D0FB689B6A23F45D
:10363000405343F48052FB689A621DE0FB689B6A2A
:1036400043F48012FB689A62FB681B68394A934214
:1036500004D0FB681B68384A93420DD1354B5B6838
:1036600003F48063002B07D0FB689B6A23F440536C
:1036700043F48052FB689A62FB689B6A03F48053B0
:10368000002B06D0FB68DB6A23F00602FB68DA62D7
:1036900002E0FB680022DA62FB68002283F8242043
:1036A000FB681B6A254A9A62FB681B6A244ADA6235
:1036B000FB681B6A234A1A63FB681B686FF00202EF
:1036C0001A60FB681B689A68FB681B6842F480728A
:1036D0009A60FB68186AFB681B684C331946BA6825
:1036E0007B6800F0AFFBFB681B689B6803F46023FA
:1036F000B3F5602F08D1FB681B689A68FB681B68EC
:1037000042F4A0029A600FE0FB681B689A68FB68AD
:103710001B6842F480129A6006E0FB68002283F87E
:10372000242001E00123FB75FB7D18461837BD46B8
:1037300080BD00BF0024014000280140A73A0008D6
:10374000233B00083F3B000880B483B000AF7860A3
:1037500000BF0C37BD4680BC704780B483B000AF5B
:10376000786000BF0C37BD4680BC704780B483B022
:1037700000AF786000BF0C37BD4680BC70470000CA
:1037800080B485B000AF786039600023FB730023FC
:10379000BB607B6893F82430012B01D10223DCE06D
:1037A0007B68012283F824203B685B68062B1CD8C9
:1037B0007B681B68596B3B685A6813469B0013442F
:1037C000053B1F2202FA03F3DB4319403B681868EC
:1037D0003B685A6813469B001344053B00FA03F20A
:1037E0007B681B680A435A633CE03B685B680C2BB0
:1037F0001CD87B681B68196B3B685A6813469B0092
:103800001344233B1F2202FA03F3DB4319403B68B6
:1038100018683B685A6813469B001344233B00FA20
:1038200003F27B681B680A431A631BE07B681B6812
:10383000D96A3B685A6813469B001344413B1F22D8
:1038400002FA03F3DB4319403B6818683B685A6887
:1038500013469B001344413B00FA03F27B681B684C
:103860000A43DA623B681B68092B1CD97B681B681A
:10387000D9683B681A6813465B0013441E3B072255
:1038800002FA03F3DB4319403B6898683B681A6807
:1038900013465B0013441E3B00FA03F27B681B686F
:1038A0000A43DA6019E07B681B6819693B681A688B
:1038B00013465B001344072202FA03F3DB4319406B
:1038C0003B6898683B681A6813465B00134400FA2B
:1038D00003F27B681B680A431A613B681B68102B64
:1038E00003D03B681B68112B32D17B681B681D4AD3
:1038F000934225D17B681B689B6803F40003002B6F
:1039000026D17B681B689A687B681B6842F40002BA
:103910009A603B681B68102B1AD1134B1B68134A23
:10392000A2FB03239A0C13469B0013445B00BB606D
:1039300002E0BB68013BBB60BB68002BF9D107E02C
:103940007B689B6A43F020027B689A620123FB73C9
:103950007B68002283F82420FB7B18461437BD4681
:1039600080BC7047002401401400002083DE1B430C
:1039700080B584B000AF78600023FB600023BB609B
:103980007B681B689B6803F00103012B40D07B68B8
:103990001B689A687B681B6842F001029A601F4BA3
:1039A0001B681F4AA2FB03239B0CBB6002E0BB68A1
:1039B000013BBB60BB68002BF9D1FFF7E1FCF8606D
:1039C0001FE0FFF7DDFC0246FB68D31A022B18D973
:1039D0007B681B689B6803F00103012B11D07B6897
:1039E0009B6A43F010027B689A627B68DB6A43F053
:1039F00001027B68DA627B68002283F824200123BD
:103A000007E07B681B689B6803F00103012BD8D19A
:103A1000002318461037BD4680BD00BF14000020AB
:103A200083DE1B4380B584B000AF78600023FB6069
:103A30007B681B689B6803F00103012B2ED17B6818
:103A40001B689A687B681B6822F001029A60FFF786
:103A500097FCF8601BE0FFF793FC0246FB68D31A63
:103A6000022B14D97B681B689B6803F00103012BB0
:103A70000DD17B689B6A43F010027B689A627B6879
:103A8000DB6A43F001027B68DA62012307E07B68AE
:103A90001B689B6803F00103012BDCD00023184650
:103AA0001037BD4680BD80B584B000AF78607B68BC
:103AB0005B6AFB60FB689B6A03F05003002B27D115
:103AC000FB689B6A43F40072FB689A62FB681B68A0
:103AD0009B6803F46023B3F5602F15D1FB681B7B53
:103AE000002B11D1FB689B6A23F48072FB689A62F9
:103AF000FB689B6A03F48053002B05D1FB689B6A2B
:103B000043F00102FB689A62F868FFF71DFE04E0CB
:103B1000FB681B6A1B6B7868984700BF1037BD466F
:103B200080BD80B584B000AF78607B685B6AFB6065
:103B3000F868FFF712FE00BF1037BD4680BD80B5A4
:103B400084B000AF78607B685B6AFB60FB689B6A4F
:103B500043F04002FB689A62FB68DB6A43F00402B0
:103B6000FB68DA62F868FFF701FE00BF1037BD4658
:103B700080BD000080B485B000AF78607B6803F042
:103B80000703FB600C4BDB68BB60BA684FF6FF03B2
:103B90001340BB60FB681A02BB68134343F0BF636A
:103BA00043F40033BB60044ABB68D36000BF1437E2
:103BB000BD4680BC704700BF00ED00E080B400AFA0
:103BC000044BDB681B0A03F007031846BD4680BCA4
:103BD000704700BF00ED00E080B483B000AF034643
:103BE000FB7197F90730002B0BDBFB7903F01F0209
:103BF000064997F907305B09012000FA02F241F803
:103C0000232000BF0C37BD4680BC704700E100E0B8
:103C100080B483B000AF03463960FB7197F9073079
:103C2000002B0ADB3B68DAB20C4997F90730120126
:103C3000D2B20B4483F800230AE03B68DAB20849A9
:103C4000FB7903F00F03043B1201D2B20B441A7646
:103C500000BF0C37BD4680BC704700BF00E100E0EC
:103C600000ED00E080B489B000AFF860B9607A6020
:103C7000FB6803F00703FB61FB69C3F10703042B37
:103C800028BF0423BB61FB690433062B02D9FB69FF
:103C9000033B00E000237B614FF0FF32BB6902FA77
:103CA00003F3DA43BB681A407B699A404FF0FF3157
:103CB0007B6901FA03F3D9437B680B401343184631
:103CC0002437BD4680BC704780B582B000AF7860B5
:103CD0007B68013BB3F1807F01D301230FE00A4AE7
:103CE0007B68013B53600F214FF0FF30FFF790FFDF
:103CF000054B00229A60044B07221A6000231846E5
:103D00000837BD4680BD00BF10E000E080B582B03E
:103D100000AF78607868FFF72DFF00BF0837BD4619
:103D200080BD80B586B000AF0346B9607A60FB7392
:103D300000237B61FFF742FF78617A68B968786990
:103D4000FFF790FF024697F90F3011461846FFF72C
:103D50005FFF00BF1837BD4680BD80B582B000AFA1
:103D60000346FB7197F907301846FFF735FF00BF90
:103D70000837BD4680BD80B582B000AF78607868F6
:103D8000FFF7A2FF034618460837BD4680BD000076
:103D900080B485B000AF78600023FB607B68002BA7
:103DA00001D1012343E07B681B681A46224B134470
:103DB000224AA2FB03231B099A007B681A647B68D2
:103DC0001F4ADA637B68022283F821207B681B6824
:103DD0001B68FB60FB6823F47F5323F03003FB6018
:103DE0007B685A687B689B681A437B68DB681A4368
:103DF0007B681B691A437B685B691A437B689B6914
:103E00001A437B68DB691343FA681343FB607B68E2
:103E10001B68FA681A607B6800229A637B6801223B
:103E200083F821207B68002283F820200023184695
:103E30001437BD4680BC7047F8FFFDBFCDCCCCCC5D
:103E40000000024080B586B000AFF860B9607A60CB
:103E50003B600023FB75FB6893F82030012B01D1F8
:103E600002234AE0FB68012283F82020FB6893F8D4
:103E70002130012B3AD1FB68022283F82120FB6814
:103E800000229A63FB681B681A68FB681B6822F0B3
:103E900001021A603B687A68B968F86800F0AEF908
:103EA000FB68DB6A002B08D0FB681B681A68FB689C
:103EB0001B6842F00E021A600FE0FB681B681A686C
:103EC000FB681B6822F004021A60FB681B681A6812
:103ED000FB681B6842F00A021A60FB681B681A68DC
:103EE000FB681B6842F001021A6005E0FB680022D3
:103EF00083F820200223FB75FB7D18461837BD464A
:103F000080BD000080B584B000AF78600023FB73F3
:103F10007B6893F82130022B05D07B6804229A63DA
:103F20000123FB7351E07B681B681A687B681B6880
:103F300022F00E021A607B681B681A687B681B6897
:103F400022F001021A607B681B68224A934229D042
:103F50007B681B68204A934222D07B681B681F4AFB
:103F600093421AD07B681B681D4A934212D07B682B
:103F70001B681C4A93420AD07B681B681A4A93420A
:103F800002D14FF480130EE04FF080730BE04FF43A
:103F9000803308E04FF4805305E04FF4807302E073
:103FA000102300E00123114A53607B68012283F84B
:103FB00021207B68002283F820207B685B6B002B2C
:103FC00003D07B685B6B78689847FB7B184610379B
:103FD000BD4680BD080002401C0002403000024087
:103FE00044000240580002406C00024000000240C1
:103FF00080B584B000AF78607B68DB6B1B68FB60CA
:104000007B681B681B68BB607B681B6C04229A4042
:10401000FB681340002B4FD0BB6803F00403002B58
:104020004AD07B681B681B6803F02003002B07D174
:104030007B681B681A687B681B6822F004021A60A0
:104040007B681B68664A934229D07B681B68654A77
:10405000934222D07B681B68634A93421AD07B68E4
:104060001B68624A934212D07B681B68604A934285
:104070000AD07B681B685F4A934202D14FF48003E9
:104080000EE04FF080630BE04FF4802308E04FF424
:10409000804305E04FF4806302E0402300E0042306
:1040A000554A53607B68DB6A002B00F094807B6884
:1040B000DB6A786898478EE07B681B6C02229A4026
:1040C000FB681340002B56D0BB6803F00203002BA3
:1040D00051D07B681B681B6803F02003002B0BD1B9
:1040E0007B681B681A687B681B6822F00A021A60EA
:1040F0007B68012283F821207B681B68384A934241
:1041000029D07B681B68374A934222D07B681B68A2
:10411000354A93421AD07B681B68344A934212D0C6
:104120007B681B68324A93420AD07B681B68314A1D
:10413000934202D14FF400130EE04FF000730BE0F6
:104140004FF4003308E04FF4005305E04FF40073E0
:1041500002E0202300E00223274A53607B6800220C
:1041600083F820207B689B6A002B34D07B689B6A95
:10417000786898472FE07B681B6C08229A40FB68A0
:104180001340002B28D0BB6803F00803002B23D07A
:104190007B681B681A687B681B6822F00E021A6035
:1041A0007B681A6C7B68DB6B012101FA02F25A60B2
:1041B0007B6801229A637B68012283F821207B6857
:1041C000002283F820207B681B6B002B04D07B68C7
:1041D0001B6B7868984700BF00BF1037BD4680BD95
:1041E000080002401C00024030000240440002402F
:1041F000580002406C0002400000024080B485B0CC
:1042000000AFF860B9607A603B60FB681A6CFB68CD
:10421000DB6B012101FA02F25A60FB681B683A6805
:104220005A60FB685B68102B08D1FB681B687A68D2
:104230009A60FB681B68BA68DA6007E0FB681B6875
:10424000BA689A60FB681B687A68DA6000BF143746
:10425000BD4680BC7047000080B48BB000AF786072
:10426000396000237B6200233B6269E101227B6AA3
:1042700002FA03F3FB613B681B68FA691340BB61F8
:10428000BA69FB699A4240F058813B685B689A4A78
:1042900093425ED0984A934275D8984A934258D038
:1042A000964A93426FD8964A934252D0944A934288
:1042B00069D8944A93424CD0924A934263D8924A26
:1042C000934246D0904A93425DD8122B2AD8122BA3
:1042D00059D801A252F823F0534300082D43000897
:1042E0003F430008814300088743000887430008D4
:1042F0008743000887430008874300088743000876
:104300008743000887430008874300088743000865
:1043100087430008874300088743000835430008A7
:1043200049430008794A934213D02CE03B68DB688C
:104330003B6229E03B68DB6804333B6224E03B6876
:10434000DB6808333B621FE03B68DB680C333B6291
:104350001AE03B689B68002B02D104233B6213E008
:104360003B689B68012B05D108233B627B68FA6997
:104370001A6109E008233B627B68FA695A6103E02D
:1043800000233B6200E000BFBB69FF2B01D87B68C4
:1043900001E07B6804337B61BB69FF2B02D87B6A39
:1043A0009B0002E07B6A083B9B003B617B691A68CB
:1043B0000F213B6901FA03F3DB431A40396A3B6979
:1043C00001FA03F31A437B691A603B685B6803F0E8
:1043D0008053002B00F0B1804D4B9B694C4A43F059
:1043E000010393614A4B9B6903F00103BB60BB6807
:1043F000484A7B6A9B08023352F82330FB607B6A91
:1044000003F003039B000F2202FA03F3DB43FA6875
:104410001340FB607B68404A934213D07B683F4A5D
:1044200093420DD07B683E4A934207D07B683D4A59
:10443000934201D1032306E0042304E0022302E0B7
:10444000012300E000237A6A02F003029200934005
:10445000FA681343FB602F497B6A9B080233FA68B2
:1044600041F823203B685B6803F48033002B06D0BF
:104470002D4B1A682C49BB6913430B6006E02A4B8D
:104480001A68BB69DB43284913400B603B685B68D3
:1044900003F40033002B06D0234B5A682249BB6932
:1044A00013434B6006E0204B5A68BB69DB431E494F
:1044B00013404B603B685B6803F48013002B06D00D
:1044C000194B9A681849BB6913438B6006E0164B79
:1044D0009A68BB69DB43144913408B603B685B6897
:1044E00003F40013002B21D00F4BDA680E49BB698F
:1044F0001343CB6021E000BF0000321000003110F8
:104500000000221000002110000012100000111005
:10451000001002400000014000080140000C014072
:104520000010014000140140000401400B4BDA6808
:10453000BB69DB4309491340CB607B6A01337B6273
:104540003B681A687B6A22FA03F3002B7FF48EAE75
:1045500000BF00BF2C37BD4680BC7047000401403F
:1045600080B485B000AF78600B467B807B689A682A
:104570007B881340002B02D00123FB7301E0002352
:10458000FB73FB7B18461437BD4680BC704780B474
:1045900083B000AF78600B467B8013467B707B78DE
:1045A000002B03D07A887B681A6103E07B881A04A9
:1045B0007B681A6100BF0C37BD4680BC70470000A5
:1045C00080B582B000AF0346FB80084B5A69FB8878
:1045D0001340002B06D0054AFB885361FB88184620
:1045E000FDF7D6FB00BF0837BD4680BD0004014083
:1045F00080B584B000AF78607B68002B01D10123C7
:104600002BE17B6893F83D30DBB2002B06D17B6851
:10461000002283F83C207868FEF704FD7B682422A2
:1046200083F83D207B681B681A687B681B6822F052
:1046300001021A607B681B681A687B681B6842F479
:1046400000421A607B681B681A687B681B6822F44A
:1046500000421A6001F036FCF8607B685B68814AB2
:10466000934207D8FB68804A934294BF01230023FA
:10467000DBB206E0FB687D4A934294BF012300232E
:10468000DBB2002B01D00123E7E0FB68784AA2FBF4
:1046900003239B0CBB607B681B685B6823F03F01B6
:1046A0007B681B68BA680A435A607B681B681B6A90
:1046B00023F03F017B685B686A4A934202D8BB687B
:1046C000013309E0BB684FF4967202FB03F3694AB9
:1046D000A2FB03239B0901337A6812680B43136220
:1046E0007B681B68DB6923F44F4222F0FF027B6882
:1046F0005B685C498B4219D8FB68591E7B685B6814
:104700005B00B1FBF3F3591C40F6FC730B40002B2C
:104710000AD0FB68591E7B685B685B00B1FBF3F352
:104720000133C3F30B0351E004234FE07B689B6824
:10473000002B11D1FB68581E7B6859680B465B0043
:104740000B44B0FBF3F30133C3F30B03002B0CBF9B
:1047500001230023DBB212E0FB68581E7B68596816
:104760000B469B000B4499000B44B0FBF3F3013361
:10477000C3F30B03002B0CBF01230023DBB2002B80
:1047800001D0012322E07B689B68002B0ED1FB68DF
:10479000581E7B6859680B465B000B44B0FBF3F373
:1047A0000133C3F30B0343F400430FE0FB68581ECF
:1047B0007B6859680B469B000B4499000B44B0FB87
:1047C000F3F30133C3F30B0343F4404379680968FF
:1047D0001343CB617B681B681B6823F0C0017B68B7
:1047E000DA697B681B6A1A437B681B680A431A6094
:1047F0007B681B689B6823F4034323F0FF037A68FC
:1048000011697A68D26811437A6812680B43936021
:104810007B681B68DB6823F0FF017B685A697B6853
:104820009B691A437B681B680A43DA607B681B68D4
:104830001A687B681B6842F001021A607B680022DC
:104840001A647B68202283F83D207B6800221A636B
:104850007B68002283F83E20002318461037BD46AF
:1048600080BD00BFA08601007F841E00FF083D00C0
:1048700083DE1B43D34D621080B588B002AFF86071
:104880007A601A460B467B8113463B81FEF778FD22
:104890007861FB6893F83D30DBB2202B40F0E0807C
:1048A0007B690093192301227049F86800F0B0FD7C
:1048B0000346002B01D00223D3E0FB6893F83C3081
:1048C000012B01D10223CCE0FB68012283F83C20BC
:1048D000FB681B681B6803F00103012B07D0FB6812
:1048E0001B681A68FB681B6842F001021A60FB68CB
:1048F0001B681A68FB681B6822F400621A60FB6878
:10490000212283F83D20FB68102283F83E20FB68BB
:1049100000221A64FB687A685A62FB683A895A85F1
:10492000FB685B8D9AB2FB681A85FB68504ADA62B5
:1049300079897B693A6AF86800F040FC0346002BED
:1049400001D001238DE000233B61FB681B685B699C
:104950003B61FB681B689B693B613B6966E07A6968
:10496000396AF86800F02AFE0346002B0DD0FB6878
:104970001B6C042B07D1FB681B681A68FB681B685B
:1049800042F400721A6001236BE0FB685B6A1A78DC
:10499000FB681B681A61FB685B6A5A1CFB685A62F9
:1049A000FB685B8D9BB2013B9AB2FB685A85FB6842
:1049B0001B8D013B9AB2FB681A85FB681B685B691B
:1049C00003F00403042B1BD1FB681B8D002B17D0B5
:1049D000FB685B6A1A78FB681B681A61FB685B6A94
:1049E0005A1CFB685A62FB685B8D9BB2013B9AB212
:1049F000FB685A85FB681B8D013B9AB2FB681A85E0
:104A00007A69396AF86800F01AFE0346002B0DD067
:104A1000FB681B6C042B07D1FB681B681A68FB68DA
:104A20001B6842F400721A6001231AE0FB681B8DB8
:104A3000002B94D1FB681B681A68FB681B6842F462
:104A400000721A60FB68202283F83D20FB68002278
:104A500083F83E20FB68002283F83C20002300E01E
:104A6000022318461837BD4680BD00BF0200100063
:104A70000000FFFF80B58AB002AFF8607A603B604B
:104A80000B467B81FEF77CFCF8610123BB61FB6870
:104A900093F83D30DBB2202B40F01181FB6900938D
:104AA000192301228849F86800F0B2FC0346002B64
:104AB00001D0022304E1FB6893F83C30012B01D1C3
:104AC0000223FDE0FB68012283F83C20FB681B68A1
:104AD0001B6803F00103012B07D0FB681B681A68F1
:104AE000FB681B6842F001021A60FB681B681A68C9
:104AF000FB681B6822F400621A60FB68242283F8BA
:104B00003D20FB6800221A64FB68704ADA62FB6889
:104B10001B681A68FB681B6842F480721A60FB69A4
:104B200000933B6800224FF00111F86800F070FC20
:104B30000346002B0DD0FB681B681B6803F48073D1
:104B4000B3F5807F03D1FB684FF400721A6403232E
:104B5000B6E07B89DBB21A46FB681B6802F0FE02F6
:104B60001A61FEF70DFCF861FB681B685B6903F0D6
:104B70000203022B0CBF01230023DBB2FB75FB6891
:104B80001B685B6903F48063B3F5806F0CBF01237E
:104B90000023DBB2BB7525E0FEF7F2FB0246FB69A2
:104BA000D31A3A689A4202D33B68002B03D1FB68C0
:104BB000A02283F83D20FB681B685B6903F00203B9
:104BC000022B0CBF01230023DBB2FB75FB681B68C3
:104BD0005B6903F48063B3F5806F0CBF012300238E
:104BE000DBB2BB75FB6893F83D30DBB2A02B05D080
:104BF000FB7D002B02D1BB7D002BCDD0FB6820229A
:104C000083F83D20FB681B685B6903F00203022BFD
:104C100029D1FB681B681A68FB681B6842F40072A4
:104C20001A6000233B61FB681B685B693B61FB68A2
:104C30001B689B693B613B69FB6900931923012257
:104C40002149F86800F0E4FB0346002B01D0012362
:104C500036E0FB68202283F83D20FB68002283F8C1
:104C60003C2000232CE0FB681B681A68FB681B686B
:104C700042F400721A60FB681B686FF480625A612C
:104C8000FB690093192301220F49F86800F0C0FB6B
:104C90000346002B01D0012312E0BB690133BB6145
:104CA000BA697B689A42FFF432AFFB68202283F82E
:104CB0003D20FB68002283F83C20012300E0022312
:104CC00018462037BD4680BD020010000000FFFFDF
:104CD00080B58AB000AF78607B681B685B693B6217
:104CE0007B681B685B68FB6100237B627B6893F8D1
:104CF0003E30FB763B6A1B0A03F00103002B16D003
:104D0000FB691B0A03F00103002B10D07B6A43F000
:104D100001037B627B681B686FF480725A617B6859
:104D20001B681A687B681B6842F400421A603B6A81
:104D30005B0A03F00103002B0ED0FB691B0A03F092
:104D40000103002B08D07B6A43F002037B627B687F
:104D50001B686FF400725A613B6A9B0A03F00103FF
:104D6000002B3FD0FB691B0A03F00103002B39D055
:104D7000FB7EBB767B685B8D9BB27B617B6893F827
:104D80003D30FB747B681B6BFB60BB7E202B12D11C
:104D90007B69002B0FD1FB7C212B08D0FB7C292BBE
:104DA00005D0FB7C282B06D1FB68212B03D178682A
:104DB00000F062F816E07B681B686FF480625A614D
:104DC0007B6A43F004037B62FB7E102B02D0FB7EE8
:104DD000402B07D17B681B681A687B681B6842F40C
:104DE00000721A603B6ADB0A03F00103002B0ED04D
:104DF000FB691B0A03F00103002B08D07B6A43F018
:104E000008037B627B681B686FF400625A617B6AEF
:104E1000002B08D07B681A6C7B6A1A437B681A6483
:104E2000786800F099F800BF2837BD4680BD80B48F
:104E300083B000AF786000BF0C37BD4680BC7047C0
:104E400080B483B000AF786000BF0C37BD4680BC33
:104E5000704780B483B000AF786000BF0C37BD46A8
:104E600080BC704780B483B000AF786000BF0C375F
:104E7000BD4680BC7047000080B584B000AF78604C
:104E80007B6893F83D30FB737B68DB6ABB60BB6873
:104E9000082B02D0BB68202B29D1FB7B282B26D1E5
:104EA0007B682C4ADA627B681B685A687B681B68DF
:104EB00022F4E0625A607B681B686FF480625A617A
:104EC0007B681B681A687B681B6822F480621A6022
:104ED0007B6800221A637B68202283F83D207B6870
:104EE000002283F83E207868FFF7AAFF2EE0FB7BC4
:104EF000212B26D17B68174ADA627B6821221A634C
:104F00007B68202283F83D207B68002283F83E20C6
:104F10007B681B685A687B681B6822F4E0625A60F1
:104F20007B681B686FF480625A617B681B681A6833
:104F30007B681B6822F480621A607868FFF777FF4D
:104F400004E07B681B686FF480625A6100BF103711
:104F5000BD4680BD0000FFFF80B584B000AF786023
:104F60007B6893F83D30FB737B6893F83E30BB73EE
:104F7000BB7B102B02D0BB7B402B0AD1FB7B222BAF
:104F800007D17B681B681A687B681B6822F4006283
:104F90001A60FB7B03F02803282B07D17B680022D3
:104FA0001A637B68282283F83D2015E07B681B6824
:104FB0005B6803F40063B3F5006F0AD0FB7B602BE2
:104FC00007D07B68202283F83D207B68002283F88D
:104FD0003E207B6800221A637B681B685B6803F4D1
:104FE0000063B3F5006F61D17B681B685A687B680A
:104FF0001B6822F400625A607B685B6B93F8213077
:10500000012B20D07B685B6B6A4A5A637B685B6BC1
:105010001846FEF777FF0346002B00F089807B6877
:105020001B681A687B681B6822F001021A607B68A3
:10503000202283F83D207B685B6B5B6B7A68526B48
:105040001046984774E07B689B6B5A4A5A637B68AA
:105050009B6B1846FEF756FF0346002B68D07B6813
:105060001B685B6903F04003402B0BD17B681B6816
:105070001A697B685B6AD2B21A707B685B6A5A1CD9
:105080007B685A627B681B681A687B681B6822F021
:1050900001021A607B68202283F83D207B689B6BAD
:1050A0005B6B7A68926B1046984741E07B6893F897
:1050B0003D30DBB2602B25D17B68202283F83D2078
:1050C0007B6800221A647B681B685B6903F04003FD
:1050D000402B0BD17B681B681A697B685B6AD2B274
:1050E0001A707B685B6A5A1C7B685A627B681B6813
:1050F0001A687B681B6822F001021A607868FFF763
:10510000B1FE15E07B681B685B6903F04003402B30
:105110000BD17B681B681A697B685B6AD2B21A7014
:105120007B685B6A5A1C7B685A627868FFF791FE5D
:105130007B681B6CBB60BB6803F00103002B0ED1C6
:10514000BB6803F00203002B09D1BB6803F0040322
:10515000002B04D1BB6803F00803002B07D07B6849
:105160001B685A687B681B6822F4E0625A607B689F
:1051700093F83D30FB737B681B6C03F00403042B36
:1051800013D1FB7B282B10D17B680B4ADA627B683A
:1051900000221A637B68202283F83D207B6800226E
:1051A00083F83E207868FFF74BFE00BF1037BD46FE
:1051B00080BD00BFC15200080000FFFF80B588B06D
:1051C00002AFF8607A603B600B467B81FB68DB6A6C
:1051D0007B617B69082B06D07B69012B03D07B693F
:1051E00013F5803F08D1FB681B681A68FB681B68D1
:1051F00042F480721A600BE0FB681B6B122B07D124
:10520000FB681B681A68FB681B6842F480721A60AE
:105210003B6800937B6800224FF00111F86800F0B2
:10522000F7F80346002B0DD0FB681B681B6803F4DE
:105230008073B3F5807F03D1FB684FF400721A646A
:10524000032335E0FB681B69B3F5804F08D17B89E8
:10525000DBB21A46FB681B6802F0FE021A611BE013
:105260007B89DB11DBB203F00603DBB263F00F03D3
:10527000DAB2FB681B681A613B687A680E49F86805
:1052800000F01DF90346002B01D0012310E07B89BB
:10529000DAB2FB681B681A613B687A680749F868EC
:1052A00000F00DF90346002B01D0012300E000239C
:1052B00018461837BD4680BD0800010002000100F5
:1052C00080B586B000AF78600023FB607B685B6AC6
:1052D0007B617B6993F83D30FB744B4B1B68DB08AB
:1052E0004A4AA2FB03231A0A13469B001344DA001E
:1052F000D31AFB60FB68002B06D17B691B6C43F063
:1053000020027B691A640AE0FB68013BFB607B6951
:105310001B681B6803F40073B3F5007FEAD07B6958
:105320005B6B002B03D07B695B6B00229A627B690D
:105330009B6B002B03D07B699B6B00229A627B697D
:105340001B681A687B691B6822F480621A607B699B
:1053500000225A857B695B6B002B03D07B695B6BFA
:1053600000225A637B699B6B002B03D07B699B6B8C
:1053700000225A637B691B681A687B691B6822F0EC
:1053800001021A607B6993F83D30DBB2602B0ED1CD
:105390007B69202283F83D207B69002283F83E2030
:1053A0007B6900221A647869FFF75CFD27E0FB7CCB
:1053B00003F02803282B17D17B691B681A687B69C7
:1053C0001B6842F001021A607B691B681A687B69DE
:1053D0001B6842F480621A607B6900221A637B6951
:1053E000282283F83D2007E07B69202283F83D20B6
:1053F0007B69002283F83E207869FFF72AFD00BF11
:105400001837BD4680BD00BF1400002089B5F814D0
:1054100080B584B000AFF860B9603B601346FB71A3
:1054200025E03B68B3F1FF3F21D0FDF7A9FF02461D
:10543000BB69D31A3A689A4202D33B68002B16D153
:10544000FB6800221A63FB68202283F83D20FB687A
:10545000002283F83E20FB681B6C43F02002FB68AF
:105460001A64FB68002283F83C20012323E0BB6818
:105470001B0CDBB2012B0DD1FB681B685B69DA43A7
:10548000BB6813409BB2002B0CBF01230023DBB28F
:105490001A460CE0FB681B689B69DA43BB68134043
:1054A0009BB2002B0CBF01230023DBB21A46FB7911
:1054B0009A42B6D0002318461037BD4680BD80B54D
:1054C00084B000AFF860B9607A603B6051E0FB687F
:1054D0001B685B6903F48063B3F5806F23D1FB68BD
:1054E0001B681A68FB681B6842F400721A60FB684C
:1054F0001B686FF480625A61FB6800221A63FB68C4
:10550000202283F83D20FB68002283F83E20FB68C0
:105510001B6C43F00402FB681A64FB68002283F8EA
:105520003C20012346E07B68B3F1FF3F21D0FDF72B
:1055300027FF02463B68D31A7A689A4202D37B68F7
:10554000002B16D1FB6800221A63FB68202283F827
:105550003D20FB68002283F83E20FB681B6C43F073
:105560002002FB681A64FB68002283F83C200123B8
:1055700020E0BB681B0CDBB2012B0CD1FB681B6865
:105580005B69DA43BB6813409BB2002B14BF012355
:105590000023DBB20BE0FB681B689B69DA43BB6846
:1055A00013409BB2002B14BF01230023DBB2002B5E
:1055B0008DD1002318461037BD4680BD80B584B01C
:1055C00000AFF860B9607A602DE0F86800F078F814
:1055D0000346002B01D001232DE0BB68B3F1FF3F50
:1055E00021D0FDF7CDFE02467B68D31ABA689A42F5
:1055F00002D3BB68002B16D1FB6800221A63FB683C
:10560000202283F83D20FB68002283F83E20FB68BF
:105610001B6C43F02002FB681A64FB68002283F8CD
:105620003C20012307E0FB681B685B6903F08003F3
:10563000802BCAD1002318461037BD4680BD80B5E7
:1056400084B000AFF860B9607A602DE0F86800F0CF
:1056500037F80346002B01D001232DE0BB68B3F1DE
:10566000FF3F21D0FDF78CFE02467B68D31ABA6853
:105670009A4202D3BB68002B16D1FB6800221A6342
:10568000FB68202283F83D20FB68002283F83E203F
:10569000FB681B6C43F02002FB681A64FB68002265
:1056A00083F83C20012307E0FB681B685B6903F07B
:1056B0000403042BCAD1002318461037BD4680BD11
:1056C00080B483B000AF78607B681B685B6903F4CB
:1056D0008063B3F5806F1BD17B681B686FF48062B9
:1056E0005A617B6800221A637B68202283F83D2080
:1056F0007B68002283F83E207B681B6C43F0040229
:105700007B681A647B68002283F83C20012300E058
:10571000002318460C37BD4680BC704780B586B064
:1057200000AF78607B68002B01D101236CE27B68BD
:105730001B6803F00103002B00F08780924B5B682D
:1057400003F00C03042B0CD08F4B5B6803F00C03AD
:10575000082B12D18C4B5B6803F48033B3F5803F88
:105760000BD1894B1B6803F40033002B6CD07B6892
:105770005B68002B68D1012346E27B685B68B3F568
:10578000803F06D1804B1B687F4A43F4803313600F
:105790002EE07B685B68002B0CD17B4B1B687A4A40
:1057A00023F480331360784B1B68774A23F48023FB
:1057B00013601DE07B685B68B3F5A02F0CD1724BC2
:1057C0001B68714A43F4802313606F4B1B686E4A59
:1057D00043F4803313600BE06B4B1B686A4A23F47D
:1057E00080331360684B1B68674A23F4802313607F
:1057F0007B685B68002B13D0FDF7C2FD386108E0C1
:10580000FDF7BEFD02463B69D31A642B01D9032381
:10581000FAE15D4B1B6803F40033002BF0D014E079
:10582000FDF7AEFD386108E0FDF7AAFD02463B69D1
:10583000D31A642B01D90323E6E1534B1B6803F40D
:105840000033002BF0D100E000BF7B681B6803F041
:105850000203002B63D04C4B5B6803F00C03002B5E
:105860000BD0494B5B6803F00C03082B1CD1464B53
:105870005B6803F48033002B16D1434B1B6803F0A5
:105880000203002B05D07B681B69012B01D001238B
:10589000BAE13D4B1B6823F0F8027B685B69DB00D3
:1058A000394913430B603AE07B681B69002B20D019
:1058B000364B01221A60FDF763FD386108E0FDF701
:1058C0005FFD02463B69D31A022B01D903239BE1FA
:1058D0002D4B1B6803F00203002BF0D02A4B1B68F2
:1058E00023F0F8027B685B69DB00274913430B60F8
:1058F00015E0264B00221A60FDF742FD386108E0F2
:10590000FDF73EFD02463B69D31A022B01D9032362
:105910007AE11D4B1B6803F00203002BF0D17B687A
:105920001B6803F00803002B3AD07B689B69002BAF
:1059300019D0174B01221A60FDF722FD386108E0EB
:10594000FDF71EFD02463B69D31A022B01D9032342
:105950005AE10D4B5B6A03F00203002BF0D00120EB
:1059600000F0C4FA1CE00A4B00221A60FDF708FDA3
:1059700038610FE0FDF704FD02463B69D31A022BA4
:1059800008D9032340E100BF00100240000042425A
:10599000800442429E4B5B6A03F00203002BE9D174
:1059A0007B681B6803F00403002B00F0A680002333
:1059B000FB75974BDB6903F08053002B0DD1944BA3
:1059C000DB69934A43F08053D361914BDB6903F069
:1059D0008053BB60BB680123FB758E4B1B6803F4CF
:1059E0008073002B18D18B4B1B688A4A43F4807359
:1059F0001360FDF7C5FC386108E0FDF7C1FC024605
:105A00003B69D31A642B01D90323FDE0814B1B684A
:105A100003F48073002BF0D07B68DB68012B06D188
:105A20007B4B1B6A7A4A43F0010313622DE07B68CB
:105A3000DB68002B0CD1764B1B6A754A23F00103FF
:105A40001362734B1B6A724A23F0040313621CE057
:105A50007B68DB68052B0CD16D4B1B6A6C4A43F0ED
:105A6000040313626A4B1B6A694A43F00103136221
:105A70000BE0674B1B6A664A23F001031362644B19
:105A80001B6A634A23F0040313627B68DB68002B04
:105A900015D0FDF775FC38610AE0FDF771FC024690
:105AA0003B69D31A41F28832934201D90323ABE018
:105AB000574B1B6A03F00203002BEED014E0FDF7F6
:105AC0005FFC38610AE0FDF75BFC02463B69D31AD4
:105AD00041F28832934201D9032395E04C4B1B6A73
